{
  "contractName": "TodoList",
  "abi": [
    {
      "inputs": [],
      "stateMutability": "nonpayable",
      "type": "constructor"
    },
    {
      "inputs": [
        {
          "internalType": "uint256",
          "name": "",
          "type": "uint256"
        }
      ],
      "name": "tasks",
      "outputs": [
        {
          "internalType": "uint256",
          "name": "id",
          "type": "uint256"
        },
        {
          "internalType": "string",
          "name": "content",
          "type": "string"
        },
        {
          "internalType": "bool",
          "name": "completed",
          "type": "bool"
        }
      ],
      "stateMutability": "view",
      "type": "function",
      "constant": true
    },
    {
      "inputs": [
        {
          "internalType": "string",
          "name": "_content",
          "type": "string"
        }
      ],
      "name": "createTask",
      "outputs": [],
      "stateMutability": "nonpayable",
      "type": "function"
    }
  ],
  "bytecode": "0x60806040526000805534801561001457600080fd5b5060408051808201909152601181527057617465722074686520706c616e74732160781b60208201526100469061004b565b610247565b60008054908061005a836100c2565b9091555050604080516060810182526000805480835260208084018681528486018490529183526001908190529390912082518155905191929091908201906100a39082610188565b50604091909101516002909101805460ff191691151591909117905550565b6000600182016100e257634e487b7160e01b600052601160045260246000fd5b5060010190565b634e487b7160e01b600052604160045260246000fd5b600181811c9082168061011357607f821691505b60208210810361013357634e487b7160e01b600052602260045260246000fd5b50919050565b601f82111561018357600081815260208120601f850160051c810160208610156101605750805b601f850160051c820191505b8181101561017f5782815560010161016c565b5050505b505050565b81516001600160401b038111156101a1576101a16100e9565b6101b5816101af84546100ff565b84610139565b602080601f8311600181146101ea57600084156101d25750858301515b600019600386901b1c1916600185901b17855561017f565b600085815260208120601f198616915b82811015610219578886015182559484019460019091019084016101fa565b50858210156102375787850151600019600388901b60f8161c191681555b5050505050600190811b01905550565b610484806102566000396000f3fe608060405234801561001057600080fd5b50600436106100365760003560e01c8063111002aa1461003b5780638d97767214610050575b600080fd5b61004e6100493660046101b5565b61007b565b005b61006361005e366004610266565b6100f2565b6040516100729392919061027f565b60405180910390f35b60008054908061008a836102de565b9091555050604080516060810182526000805480835260208084018681528486018490529183526001908190529390912082518155905191929091908201906100d3908261038e565b50604091909101516002909101805460ff191691151591909117905550565b60016020819052600091825260409091208054918101805461011390610305565b80601f016020809104026020016040519081016040528092919081815260200182805461013f90610305565b801561018c5780601f106101615761010080835404028352916020019161018c565b820191906000526020600020905b81548152906001019060200180831161016f57829003601f168201915b5050506002909301549192505060ff1683565b634e487b7160e01b600052604160045260246000fd5b6000602082840312156101c757600080fd5b813567ffffffffffffffff808211156101df57600080fd5b818401915084601f8301126101f357600080fd5b8135818111156102055761020561019f565b604051601f8201601f19908116603f0116810190838211818310171561022d5761022d61019f565b8160405282815287602084870101111561024657600080fd5b826020860160208301376000928101602001929092525095945050505050565b60006020828403121561027857600080fd5b5035919050565b83815260006020606081840152845180606085015260005b818110156102b357868101830151858201608001528201610297565b506000608082860101526080601f19601f830116850101925050508215156040830152949350505050565b6000600182016102fe57634e487b7160e01b600052601160045260246000fd5b5060010190565b600181811c9082168061031957607f821691505b60208210810361033957634e487b7160e01b600052602260045260246000fd5b50919050565b601f82111561038957600081815260208120601f850160051c810160208610156103665750805b601f850160051c820191505b8181101561038557828155600101610372565b5050505b505050565b815167ffffffffffffffff8111156103a8576103a861019f565b6103bc816103b68454610305565b8461033f565b602080601f8311600181146103f157600084156103d95750858301515b600019600386901b1c1916600185901b178555610385565b600085815260208120601f198616915b8281101561042057888601518255948401946001909101908401610401565b508582101561043e5787850151600019600388901b60f8161c191681555b5050505050600190811b0190555056fea2646970667358221220faefed9d280bbbfb8779993480935bcc35bda317e1678b9d5e0108fad227d4c164736f6c63430008110033",
  "immutableReferences": {},
  "source": "// SPDX-License-Identifier: MIT \r\npragma solidity ^0.8.0;\r\n\r\ncontract TodoList {\r\n    uint taskCount = 0;  // to keep track of number of tasks in todo list\r\n\r\n    struct Task {\r\n        uint id;\r\n        string content;\r\n        bool completed;\r\n    }\r\n\r\n    constructor() public {\r\n        createTask(\"Water the plants!\");\r\n      }\r\n\r\n    mapping(uint => Task) public tasks;\r\n\r\n    //Creating tasks :\r\n    function createTask(string memory _content) public {\r\n        taskCount++;\r\n        tasks[taskCount] = Task(taskCount ,_content, false);\r\n    }\r\n\r\n\r\n\r\n}",
  "sourcePath": "C:\\Users\\sakha\\OneDrive\\Desktop\\eth-todo-list\\contracts\\TodoList.sol",
  "compiler": {
    "name": "solc",
    "version": "0.8.17+commit.8df45f5f.Emscripten.clang"
  },
  "schemaVersion": "3.4.10",
  "updatedAt": "2022-10-04T16:32:11.855Z",
  "networkType": "ethereum",
  "devdoc": {
    "kind": "dev",
    "methods": {},
    "version": 1
  },
  "userdoc": {
    "kind": "user",
    "methods": {},
    "version": 1
  }
}